:1000000000000220750300005D0300005F03000094
:1000100061030000630300006503000000000000AE
:100020000000000000000000000000006703000066
:1000300069030000000000006B0300006D03000076
:10004000A93000009D4E0000FD3000006F0300004D
:100050006F0300006F0300006F0300006F030000D8
:10006000F13100006F0300006F0300006F03000018
:100070006F0300006F0300006F0300006F030000B8
:100080006F030000CD1800006F0300006F03000035
:100090006F0300006F0300006F0300006F03000098
:1000A0006F0300006F0300006F0300006F03000088
:1000B0006F0300006F03000000000000000000005C
:1000C0006F0300006F0300006F0300006F03000068
:1000D0006F0300006F0300006F0300006F03000058
:1000E0006F0300000000000000000000000000009E
:1000F000000000006F030000000000006F0300001C
:1001000000000000000000000000000000000000EF
:1001100000000000000000000000000000000000DF
:1001200000000000000000000000000000000000CF
:1001300000000000000000000000000000000000BF
:1001400000000000000000000000000000000000AF
:10015000000000000000000000000000000000009F
:10016000000000000000000000000000000000008F
:10017000000000000000000000000000000000007F
:10018000000000000000000000000000000000006F
:10019000000000000000000000000000000000005F
:1001A000000000000000000000000000000000004F
:1001B000000000000000000000000000000000003F
:1001C000000000000000000000000000000000002F
:1001D000000000000000000000000000000000001F
:1001E000000000000000000000000000000000000F
:1001F00000000000000000000000000000000000FF
:10020000354936480A1A02D0072291438D463449AF
:1002100034480A1A06D00722914381F30988022242
:1002200082F3148830483149314A00F044F83148AB
:100230003149324A00F03FF831483249324A00F041
:100240003AF832483249334A00F035F832483349F7
:10025000334A00F030F833483349344A00F02BF881
:1002600033483449344A00F026F8344834490022EF
:1002700000F02CF833483449002200F027F83348C6
:100280003349091A082902DB002202604160314A21
:1002900090471F481F49884205D00268043003B4C4
:1002A000904703BCF7E700208646EC46002000217B
:1002B000294A9047FEE7884207D0521A05D00378B2
:1002C00001300B700131013AF9D17047884202D0F8
:1002D00002700130FAE770470000022000E00120C0
:1002E00000000220000002209C8C0000DC000020A6
:1002F00058010020D0030000D00300000867000070
:100300009C8C0000DC000020DC00002090690000D4
:1003100090690000906900009069000090690000F9
:100320009069000090690000906900009B8C0000BB
:10033000188D0000580100205801002058010020AD
:10034000040E0020040E0020080E0020080E0020DD
:10035000082E00209D030000253D0000FEE7FEE77B
:10036000FEE7FEE7FEE7FEE7FEE7FEE7FEE7FEE765
:1003700000F002B8FFF7FCBF0F484FF007018843B9
:1003800085460E4880470E48016841F470010160BF
:10039000BFF34F8FBFF36F8FFFF732BF09480A4992
:1003A0000A4A884207D0521A05D0037801300B70F0
:1003B0000131013AF9D1704700000220354F0000A9
:1003C00088ED00E0B468000000000020DC000020A0
:1003D00000487047FC0D0020F0B595B01D4616464C
:1003E00008460C4602F010FC1A9B0D93CDE90865F7
:1003F00000252B46082205A920460A958DF82C5089
:100400000C9502F01EFC079B0293069B03939DF83C
:1004100014308DF8115003F00302012A1DD1BDF8EC
:100420001420059DC3F3C203C2F383168DF8103068
:10043000B20008230EA9204602F003FCC5F395255F
:1004400008AB0093324602AB0EA9284600F026FE08
:10045000204602F0DDFB15B0F0BD022AF8D1BDF850
:100460001650C3F3C203C5F389158DF81030082761
:10047000082D2E4628BF08263B4632460EA92046A8
:1004800002F0DFFBAD1B08AB02AA31460EA83744D1
:1004900000F068FE002DEBD1DAE70000014B0122ED
:1004A0001A707047990100207047000070B5124D16
:1004B00006460FCD88B06C460FC495E80F00002E9D
:1004C00084E80F004FF0FF334FF00602CDE9002320
:1004D000CDE90233094A0A484FF0EB7308BF002206
:1004E0006946069302F07AFD08B100F0EDFE054B77
:1004F0001E7008B070BD00BF906900009D04000030
:10050000DC0000205801002007B5044B0093044A8A
:100510004023FFF761FF03B05DF804FB25050000F1
:100520005901002038B50D4B0D4D002018700D48B5
:1005300004782D5DD2B21C4665B1043003F0AAFBED
:1005400008B100F0C1FE084B1A7812B12378002BD5
:10055000FBD038BD0C3003F09FF8F1E79901002083
:1005600038070020DC0000205801002008B50848AA
:10057000084A0378D35C3BB1043003F007FBBDE8C5
:1005800008400020FFF792BF0C3003F029F8F6E78F
:10059000DC0000203807002000230428CB604B60DB
:1005A00098BF044B044A98BF53F820308A600B6010
:1005B000704700BFE86D0000C46D0000CB680022EA
:1005C0005A717047C368DB6800225A717047CB6864
:1005D00001225A717047C368DB6801225A71704763
:1005E0000D4A8A6070B50D4A0D4C0023121BCB607A
:1005F0004B600B6012091D469A4207D0E6683679B7
:10060000FF2E05D0854202D1A3680B6070BD013575
:1006100001331034F0E700BFFC6D00007C6800007F
:100620005C6800002DE9F74F154D164C9846641B89
:1006300052F8043C06468946174624094FF0000B41
:100640005C4507D1104A0221304603B0BDE8F04FA7
:1006500001F080BCA9680193184605F0E3FCAA46A6
:10066000103518B1019B0BF1010BE9E73B464A46F7
:1006700051463046C44603B0BDE8F04F604700BF66
:100680005C6800007C680000BC690000014BFFF75B
:10069000C9BF00BFF10B0000014BFFF7C3BF00BF94
:1006A000BD050000014BFFF7BDBF00BFCF05000037
:1006B000014BFFF7B7BF00BF1D0A0000037813F01E
:1006C000040216D003F00303012B03D0022B09D040
:1006D000012070470A6800880232C0F38310024488
:1006E0000A60F5E70B684288023303EB92130B6054
:1006F000EEE71046704700002DE9F04F044685B044
:10070000861C00200F46154600F0ACFF3F4A51689A
:100710003960936803F580735B1A924602F21C47B6
:1007200002F5836902F21448B34219D30020002D68
:1007300068D004F00F039B0143F0050363F30F003F
:10074000DAF80430DAB203321E444AF822000020FC
:10075000CAF8046000F088FF012005B0BDE8F08F02
:100760000121384601F02DF9484601F042F9404692
:1007700001F03FF9DAF808000090C0B203300AEB4C
:1007800080006946FFF79AFF009B30BBDAB20AEBA4
:100790008202D16801919A1C0133DBB20AEB830318
:1007A0000092D3F80CB001F00303012B22D0022BEE
:1007B00015D08346404601F01FF910B1009BCAF8DE
:1007C00008305946384601F0FCF8DAF80830DAF813
:1007D000042003F580739B1AA6E7D8B2CEE7BDF8D4
:1007E0000630C3F3891303334FEA1B4B02EB930329
:1007F0000093DFE7BDF80430C3F383134FEA1B4BCC
:100800001344F5E7A40544F0060099E76C020020C4
:10081000012907B5034604D08168D1F8641189071E
:1008200007D500221146184603B05DF804EB01F02D
:100830008BBC53680193054B00931368044A022153
:1008400001F088FB03B05DF804FB00BFDC69000029
:10085000D26900002DE9F3478368D3F86431C3F30C
:1008600040059B07074606D50022114602B0BDE8A9
:10087000F04701F069BC144E144CDFF85880DFF8E3
:100880005890DFF858A0A41B2409A54202D102B059
:10089000BDE8F087F268B3681179FF2907D10C4AE7
:1008A0000821384601F056FB01351036EDE7527944
:1008B000002A14BF42464A46CDE900213846524636
:1008C000082101F047FBEFE75C6800007C6800004E
:1008D000FA69000072800000F1690000196A0000E6
:1008E00030B50A4B0A4A0B49D21AD20800239A4261
:1008F00001D1052006E031F823500468A54202D159
:100900000360002030BD0133F1E700BFDC67000069
:100910005C6800005C0000208368D3F864319B07AA
:1009200003D50022114601F00FBC024A022101F05A
:1009300011BB00BF3A6A00008368D3F864319B079B
:1009400003D50022114601F0FFBB024A022101F04B
:1009500001BB00BF3A6A000007B5019031B9019AA6
:10096000064B53F8320003B05DF804FB01A8FFF713
:10097000B7FF0028F3D00020F5E700BFDC670000D8
:10098000002310B5CB604B60034B8B600C460121FC
:10099000FFF7E2FF206010BDC46D0000094B013974
:1009A00003EBC000032909D8DFE801F00A020406BE
:1009B00004207047007970474079704700207047E5
:1009C00002207047DC67000030B5124C00EB40009D
:1009D00054F8215002FA00F3072202FA00F06B40AB
:1009E0000D4A03406B40C3F3821044F8213002EB00
:1009F0008101C3F3C202824238BF0246C3F34220E0
:100A0000824203F0070338BF0246934238BF1346C1
:100A10004B8030BD9C0000205C0000202DE9F04F91
:100A2000064685B01D461746002A51D0CB68286877
:100A30004C4993F80490072205F007FA0446C8B918
:100A4000012F07D1484A0221304605B0BDE8F04FDA
:100A500001F080BADFF82C8158F8041B68680A227C
:100A600005F0F3F9002877D00134052CF4D16B6838
:100A70003E4A15E03E492868082205F0E6F904469A
:100A800060B9012F2DD04FF001083A4A3A4BDFF8F8
:100A9000F8A09B1ADB08CDE9013247E02B68374A02
:100AA0000221304605B0BDE8F04F01F053BA18F806
:100AB0003530A3420FD200212846FFF74DFF5246A2
:100AC00003460221304601F045FA0135BD42EED120
:100AD00005B0BDE8F08F224629464846FFF774FF6F
:100AE000F3E7244B244FDFF8A0A0FF1AFF080025EE
:100AF00003F10608EAE7184600210393FFF72CFFED
:100B00005946202205F0A1F9039B014608B10133A3
:100B100011E0029A02EBC3029279A24216D3224656
:100B200019464846FFF750FF08F10108B845CFD2F3
:100B300055F828B00023019A9A42DCD155F82830A4
:100B40000F4A0221304601F005FAEDE71846FFF79B
:100B500003FF52460346F4E7022FE4B2C1D04FF040
:100B6000020892E74B6A0000526A0000BD6A00006A
:100B7000696A0000DC6700005C680000716A0000C0
:100B8000A96A0000D46D0000866A000013460A4678
:100B9000C168FFF743BF000013B504460191ABB134
:100BA0006AB90199104A04EB440052F82120072346
:100BB0008340134023FA00F0C0B202B010BD01A878
:100BC000FFF78EFE0028ECD00020F6E72AB9019A44
:100BD000064B03EBC2039879EFE701A8FFF780FE0D
:100BE0000028F1D1F3E700BF9C000020DC67000083
:100BF000294B2A4A2DE9F04F9B1A4FEAD30ACB68BA
:100C00005B7985B005460E461BB9254A022101F0E5
:100C1000A1F9244B244ADFF8A4800821284601F0DA
:100C200099F9224A0821284601F094F900245445F4
:100C300002D105B0BDE8F08FF36893F8049001236A
:100C40001A4621464846FFF7A7FF002307462146DC
:100C500001224846FFF7A0FF03280246814628BF2D
:100C60000322012120465FFA82FBFFF775FE104A3E
:100C700058F82B10034658F827000E4F0090D9451E
:100C800098BF3A46CDE9011228460B4A082101F0E7
:100C900061F90134CBE700BF5C680000DC6700004D
:100CA000DC6A0000EF6A0000FB6A0000196B0000BC
:100CB000DA6A000026710000566B0000D46D000057
:100CC00013460A46C168FFF793BF0000034BD3E900
:100CD0000130C31A58425841704700BF6C020020CF
:100CE0002DE9F04385B0FFF7F1FF0546002840F0FD
:100CF0000481834CC4F81804BFF34F8FA36800939A
:100D0000DBB2033304EB83006946FFF7D7FC009B9B
:100D100018B1D4F81824002A5FD0DAB2991C013334
:100D200004EB8202DBB204EB8303D268DB6802933C
:100D300002F00303022B0192009159D1BDF8063055
:100D400070489DF80450C3F38917502FB84628BF48
:100D50004FF0500868F38F1308F10801ADF8063022
:100D600001F023FFC5F3C2050646002800F0AC8061
:100D700001F04AFF002301A90822304601F057FF85
:100D80000099CB43DBB20133C9B20331B8EB830F17
:100D90004FEA830904EB810127D908234A46A8EBCF
:100DA0000908304601F043FF5FFA88F8564909F117
:100DB00008034246304601F03AFF009B033703EB3D
:100DC00097070097D4F81834002B47D1D4F8107443
:100DD000DFF848914FF0070865E062689A428FD8C3
:100DE000A260284605B0BDE8F08308234246E1E74B
:100DF000012B69D1BDF804504248C5F3831106297F
:100E000028BF062161F3891502318900ADF804502D
:100E100001F0CBFEC5F3C2050646002854D001F010
:100E2000F3FE0023082201A9304601F000FF00274D
:100E3000BDF80420C2F38312BB00974203F10803FC
:100E4000C0D200994A1CC9B20331009204EB81015F
:100E50000422304601F0EBFE0137E9E7304601F0AD
:100E6000D7FEFFF733FF80F00100C5B2B9E7FB689A
:100E70005A79B2B11B79BDF8081003EB430259F857
:100E8000211008FA02F3052D03EA010323FA02F305
:100E900008BF0325AB4204D33B6831461B68384684
:100EA0009847FB681F68002FE1D1304601F0B0FE83
:100EB000384600F0D7FBD4F818340BB9009BA36078
:100EC000002000F0D1FBCCE7D4F8104474B90F4BEC
:100ED0005B88012BC5D90E4B0E480F49C01AC008BC
:100EE000000440F0020000F061F8BAE723682046F1
:100EF0009B689847E3681C68E8E7002571E700BF36
:100F00006C0200207C680000780200207000002045
:100F1000DC670000046800006C6B00009C0000208F
:100F20002DE9F34704460E46924601A901221846D0
:100F30009946FFF7E1FB1B4F10B3019D4FF00008EE
:100F4000AA1CC84508EB020123D11748002100F074
:100F500015FD80F31000000440EA1440E4006B1C0F
:100F600004F03804DBB2EDB244F0010407EB830374
:100F7000033544EA881444EA8624D86047F82540BB
:100F80003B781BB1FFF7ACFE0028FBD102B0BDE8F7
:100F9000F087C9B207EB81015AF82830CB6008F11D
:100FA0000108CEE76C0200208806002000231A46C4
:100FB000FFF7B6BF084A38B50123D2F810441370C2
:100FC0001D4604B938BDE3685D71236820465B683F
:100FD0009847E3681C68F4E76C02002007B50346F5
:100FE0000846197A052911D05B7A2BB1094A0A49BA
:100FF000019001F0B4FB01980849019001F0AFFBAA
:10100000019803B05DF804EB01F09EBB002AF8D014
:10101000F2E700BF446F000071720000247100000D
:1010200030B5C38885B004460D4633B1144A0092EA
:101030001449154A284601F092FB217A05291DD052
:10104000637A4BB1A088FFF7A9FC104B104953F805
:101050002020284601F083FB227A0E4BA08853F80B
:10106000222003920021FFF777FC039A0A490346E6
:10107000284605B0BDE8304001F071BB05B030BD79
:10108000446F0000516F0000496F0000BC6F00000A
:1010900071720000E06F0000696F00002DE9F043FD
:1010A00085B01F460C9D002395F80C902B730646C7
:1010B0000C46904629463846FFF7B2FFB8F1060FB6
:1010C00009D8DFE808F00412181F28334000314621
:1010D000284601F044FB002229463846FFF77EFFF0
:1010E00085F80C9005B0BDE8F083226831462846AB
:1010F00001F035FBEFE7D4E900233146284601F043
:101100002EFBE8E7A36800933146D4E90023284684
:1011100001F025FBDFE7E3680193A3680093314604
:10112000D4E90023284601F01AFBD4E7236902938F
:10113000E3680193A36800933146D4E9002328466D
:1011400001F00DFBC7E76369039323690293E3682A
:101150000193A36800933146D4E90023284601F0A7
:10116000FEFAB8E708292DE9F74F80460E461746E4
:101170001C463CD8002593F80C901D731946104668
:10118000FFF74EFFDFF888A0DFF888B0AE4231D914
:1011900018F805205946204601F0E1FA0135082DDE
:1011A000F4D11949194DDFF870A0204601F0D7FAA3
:1011B0004FF0000B5E4522D918F80B207E2A05D887
:1011C0001046019204F0AEFD019A00B92E2251465C
:1011D000204601F0C4FA0BF1010BBBF1080FE9D175
:1011E000012221463846FFF7F9FE84F80C9003B03F
:1011F000BDE8F08F5146204601F0B1FACEE729460E
:10120000204601F0ACFAE6E77D6F00007B6F00003E
:10121000796F0000736F00007F6F0000074B1B5C4D
:101220001F2B86BF064903F01F034FF0A041012288
:1012300002FA03F3C1F80C35704700BFF46F0000E9
:1012400000030050074B1B5C1F2B86BF064903F0B1
:101250001F034FF0A041012202FA03F3C1F8083541
:10126000704700BFF46F00000003005008B5002075
:10127000FFF7E8FF0120FFF7E5FF0220FFF7E2FF9D
:10128000BDE808400320FFF7DDBFC20710B50446E4
:101290000CD54FF0A0430322C3F83427C3F83827F6
:1012A000C3F83C27C3F84027FFF7E0FFA3070AD5A0
:1012B0004FF0A0430C22C3F82C27C3F83027C3F803
:1012C0006027C3F8642710BD1FB50021039001AA51
:1012D00044F20100CDE9011100F004F805B05DF819
:1012E00004FB000010B572B6FFF764FEFFF7F8FCD0
:1012F0000028FBD1154C62884AB11548154B164998
:10130000C01AC008000440F00100FFF74FFE134B65
:101310001B68DB0700D500BE6388012B09D90C4888
:101320000C4B0F49C01AC008000440F00200FFF740
:101330003DFEBFF34F8F0B490B4BCA6802F4E062CE
:101340001343CB60BFF34F8F00BFFDE77000002059
:1013500004680000DC670000F86F0000F0ED00E0BA
:101360000470000000ED00E00400FA05D0E902235B
:10137000D1E90201994208BF90422CBF0120002010
:101380007047000008B50B4800F09BFA0A4B0B4968
:10139000D3E900231218D1E9000143F100038B4285
:1013A00008BF824203D212F1807243F1000310465B
:1013B000194608BD0C01002090060020F806002008
:1013C00038B5194B1B78044613B90025284638BD9B
:1013D0000028FAD090F8203003F0FF05002BF4D05D
:1013E000FFF7D0FFD4E90223994208BF904216D3F9
:1013F00023690BB984F82030D4E905309847216976
:101400000029E2D094F8203003F0FF05002BDCD057
:10141000D4E90223521843F10003C4E9022303482C
:10142000214601F040FDD1E798060020347000000D
:1014300013B5114B11491868019008231048582220
:1014400000F04EFA044698B90E4A0F4801A900F080
:101450001BF9044660B90C48012100F015FA01237C
:101460000A4A0948194600F077F9094B01221A7017
:10147000204602B010BD00BF2E7000009C06002068
:10148000F8000020A11400000C010020FFFF7F00E5
:1014900098060020014800F014BA00BF0C0100209B
:1014A0002DE9F04F85B0804600F0F6F940B15C4A76
:1014B000D2E9003113F1807341F10001C2E900313A
:1014C0000021404600F0F7F938B1564E336823B199
:1014D0003068FFF775FF002333600121404600F0BC
:1014E000EAF920B1FFF74EFF4F4BC3E900014F4827
:1014F0004C4F4F4EDFF8409103A900F004FA00284A
:1015000046D1DFF82C91474EDFF830A1484601F074
:10151000E0FC3368002878D083B13368D0E9020159
:10152000D3E90223994208BF90422ED2336893F840
:1015300020301BB13168484601F0B5FC484601F047
:10154000C2FCD0E902B307460193FFF71BFF019BE2
:10155000BBEB000463EB0105012C75F1000347DBD5
:10156000B4F5350F42D3FFF795FF324A02444FF4EA
:1015700096030021504600F00FF9002840D133684F
:1015800013B9404600F0E0F8376005B0BDE8F08FD1
:101590000378012B1FD0022B09D14FF0000A3046EF
:1015A00001F091FC002836D080F820A0F7E74BB975
:1015B000416891F820302BB9012381F82030304662
:1015C00001F071FC03A9194800F0C8F903A91748F4
:1015D00000F099F993E741683B68994202D10023F2
:1015E0003B60EFE7304601F077FCEBE7BA68BEE717
:1015F0000021504600F055F93846FFF7E1FE01E0C2
:101600000D28F9D00023336080E7002BBDD1404680
:1016100000F09EF8B9E7012389F80030D2E700BF57
:101620009006002000070020F8060020F8000020A7
:1016300034700000FFFFB400980600200C01002069
:1016400072B6024A13680133136070470407002022
:10165000034A1368013B136003B962B6704700BFC9
:1016600004070020FFF7ECBFFFF7F2BF435882B03A
:101670003BB10023435043580193019B012002B02A
:1016800070471846FBE70000F8B5264C4379264E14
:1016900044F82320254C04EBC3031B7973B17388F2
:1016A000012B09D92248234B2349C01AC008000442
:1016B00040F00200FFF77AFC0820F8BD03680A88B2
:1016C000C3F8082590F904508B7802795B01002D4E
:1016D000DBB221DB19494F1987F8003301236D096B
:1016E00002F01F0203FA02F241F82520437904EBCD
:1016F000C30244F8330073880121022B117109D908
:101700000B480C4B0E49C01AC008000440F00300FF
:10171000FFF74CFC0020D0E70A4902F00F028B547F
:10172000E4E700BF10070020740000200807002035
:101730000C680000DC6700004070000000E100E081
:101740006270000014ED00E0036801221A60704727
:10175000036801225A60704773B501F15005AD006E
:101760000068ADB24FF480348C400026C0F80843C6
:10177000C0F84843465101F5A8714559019522F03A
:101780007F42019D40F82120C0F844430BB1C0F8CE
:10179000044302B070BD00002DE9F74F0D4622F062
:1017A0007F4402684FF4803705F150068F40804631
:1017B000B60002EB8500C2F84873B6B2C2F80873EF
:1017C000D2F8041599464FF0000BD0F84035C0F818
:1017D000401542F806B05B1A9259009223F07F43FD
:1017E000012B009A4FEA850A0CD1264B4FF48060FA
:1017F00043F001039847D8F8003043F806B09B59EE
:101800000193019BD8F80010D1F80465C1F8447326
:10181000A31B23F07F43012B1CD11A4B05F5A875A0
:10182000013443F0010341F825404FF480609847AC
:10183000D8F80030D3F804359E4209D1D8F80030EA
:101840000020C3F84473C3F8047303B0BDE8F08FFD
:101850000D20FAE78A44C9F1FF13CAF84045D1F8D0
:101860000405221A013A22F07F4203F57F43934296
:10187000EED3002AE2D10134CAF84045D1F804354C
:101880009842DAE78070000003680222C3F844231C
:1018900009B1C3F80423704700684FF48271FFF761
:1018A000E5BE4FF4803303FA01F10368C3F848132F
:1018B000C3F80813704750318900006889B2FFF7F8
:1018C000D5BE0368D3F8040570470000024B034AF5
:1018D0001B681068184700BF100700200807002089
:1018E00010B561B1B2FBF3F403FB1424A4B244B904
:1018F000C0E9001484608281C381204610BD0E209F
:10190000FCE70920FAE737B550E8023F1FFAA3F5D4
:10191000C488A54202BFBFF32F8F00220DE0C48907
:1019200025448489A54228BF2D1BC3EA054540E80C
:101930000254002CE8D14FF001028DF803200193EE
:10194000019B9DF803200B6002F0FF0322B14B883E
:101950000068184403B030BD1846FBE70A884B887E
:101960009A4209D150E8022FC2EA224240E80223FB
:10197000002BF7D1012070470020704710B50346B7
:1019800053E8000F0A4643E8002494F0000FF7D113
:1019900010BD10B5034653E8002F42EA010043E8AA
:1019A000000494F0000FF6D110BD10B5034653E8C3
:1019B000000F00EA010243E8002494F0000FF6D182
:1019C00010BD10B5034653E8002F02EB010043E8B9
:1019D000000494F0000FF6D110BD10B5034653E893
:1019E000002FA2EB010043E8000494F0000FF6D1B1
:1019F00010BD0121FFF7CDBF0021FFF7D6BF0000CA
:101A00002DE9F0478368D3F86431C3F340059B07A1
:101A100088B0074606D50022114608B0BDE8F04759
:101A200000F092BB012906D91E4A022108B0BDE888
:101A3000F04700F08FBA1C4C1C4EDFF874A04FF03A
:101A40006408A946361B1C23B6FBF3F6AE4204F12C
:101A50001C0402D108B0BDE8F08754F81C0C54E90E
:101A60000623017900689A1A1B1ADBB2039308FB5C
:101A700003F3B3FBF2F3CDE9019334F8043C009394
:101A8000CDE9061254F8083C11FB08F13846B1FBC9
:101A9000F2F1CDE904215246082100F05BFA01354C
:101AA000D4E700BF867000007C680000B4680000C6
:101AB0009970000038B504460020FFF7D3FD226876
:101AC00063681168994213D9481E106011F8015CCF
:101AD000E368218B01FB0535A36811791B1ADBB282
:101AE000994200D213710020FFF7BEFD284638BD91
:101AF0000025F8E738B5054600200C46FFF7B2FD93
:101B00002A681368591C1160E968641A298BB4FBB0
:101B1000F1F41C70BDE838400020FFF7A5BD436814
:101B200010B59C686068036801219B689847A368AA
:101B300010B903221A7010BD0422FBE708B104F0AB
:101B400098BA704710B584680068FFF7F7FFE37F25
:101B5000627EA07653FA80F3B3FBF2F102FB1133FD
:101B600001332375A37F53FA80F00131B0FBF2F308
:101B700002FB1300A1750130591C6075E17504F179
:101B8000140010BD2DE9F843089E1C460D46E9B926
:101B9000194E1A4B9B1BB2EBD30F4FEAD30804D25A
:101BA000174F07EB8207A84501D1002309E07368AE
:101BB0003868196804F036FAB146083620B9D9F801
:101BC00004302360BDE8F8830135ECE70028ECD051
:101BD0000178436839B13146104698473368002B85
:101BE000E3D02660EEE7110103EB02125B58002BF5
:101BF000DBD02260E6E700BF08670000C067000096
:101C00000000002007B58368B9B1DA7E8A4211D09E
:101C10000B4A009233228DF8042001F12F028DF837
:101C200005206D22ADF80620D9766A46054900697F
:101C300000F095FD03B05DF804FB034AD976F5E7A3
:101C40001B5B313B71720000F175000007B58368C2
:101C50001A7F8A4213D045F61B32ADF80020342299
:101C60008DF8022001F12F0219778DF803206D22E3
:101C7000ADF80420034900696A4600F070FD03B026
:101C80005DF804FB71720000014900F068BD00BFFF
:101C9000257100000A460068014900F060BD00BFE0
:101CA000A871000009B1FFF7F5BF7047014A02496A
:101CB00000F055BDED750000717200002DE9F34193
:101CC00005460F461446002614B902B0BDE8F0815F
:101CD000686803682246D3F80C80B91901ABC04785
:101CE000019B1E44E41A002BEED1AB681A78032A3C
:101CF000EAD0D3F864219206FBD5B3F864216FF3E0
:101D00004512A3F86421DFE72DE9F04F2DED028B9A
:101D1000044683B090460E46002973D00025705DBE
:101D200003F0FBFF50BB04F1100308EE103A5FFA1A
:101D300088FB3046FFF702FFA36893F81990401B19
:101D4000A9EB080906EB050A484553464FF0000782
:101D500017D913F8010BCDE9003303F0DEFF009B28
:101D600020B113F8012C0A2A34D0B946A268507E5B
:101D700008EB070290422CD90137EAE70135CEE79C
:101D80000137B84219D013F8012B0A2A05EB0709CD
:101D9000F6D1206900F0D8FC3A4627465146204645
:101DA000FFF78CFF57F8100FFFF76EFF5FFA88F10F
:101DB000384609F10105FFF775FF2069711900F038
:101DC000CEFC206903B0BDEC028BBDE8F04FFFF7FD
:101DD0005BBF4F46206900F0B7FC3A4651462046AB
:101DE000FFF76CFF3D44705D03F097FF40B9206939
:101DF000FFF74AFF18EE100A5946FFF753FF98E71E
:101E00000135F0E703B0BDEC028BBDE8F08F0000B8
:101E10000A4619B10249006800F0A1BC704700BF32
:101E2000AE7100000A4619B10249006800F097BC83
:101E3000704700BFB47100002DE9F341054680688A
:101E4000424F002480222146A0308DF8034004F048
:101E5000B6F83F49286900F082FC286900F074FC5C
:101E60004FF47A7647F00107686803680122D3F8D7
:101E700010800DF1030101ABC047019B5BB94FF628
:101E8000C010B847019B002BEED1013EB6B2002E28
:101E9000EAD10D2035E09DF80330AA681B2B48D00D
:101EA00092F8A0101B29EDD1522B42D114440023EB
:101EB00084F8A03092F8A1105B291FD102F1A2068C
:101EC00002211D4616F8010B4C1C3B28E1B264B2FE
:101ED0001AD1002C20DB01F1A0041444002314F8D3
:101EE000010BD8B9FA2B28BFFA23FA2D13752B460C
:101EF00028BFFA23937582F8A00002E082F8A03090
:101F00000B2002B0BDE8F08105EB850300EB430335
:101F1000303B80299DB2D5D10C20F2E703EB83033F
:101F200000EB43004E1C303883B23006F1B2F3D4DC
:101F3000D5E711190134E4B2092C81F8A030A1D9F8
:101F4000002382F8A0300420DBE700BF10760000F9
:101F5000047600000CB473B506AB0D4653F8046B61
:101F600081680193D1F864315B07044620D5CB7EAC
:101F7000AB421DD002221B31684603F0F7FF294611
:101F80002046FFF73FFE206901AA314600F066FCBB
:101F90009DF800102046FFF735FE9DF8011011B1A5
:101FA0002046FFF753FE02B0BDE8704002B0704714
:101FB000206901AA314600F051FCF4E72DE9F04117
:101FC000C3685B6890B004460D461868002203A9F8
:101FD00000F023FF002840F08C808DB1039800F0C2
:101FE00017FEA268D2F854310133C2F8543103F01D
:101FF0000703012B04D00125284610B0BDE8F0816D
:102000002046FFF79FFD81780129064605D9013951
:10201000C9B204F11000FFF7FBFE3178012905D9A0
:102020000139C9B204F11000FFF7FCFE2069FFF787
:102030003DFE2DB1304A02212046FFF78BFFDBE742
:1020400000230822039804A900F0FBFD069B0793D8
:10205000059B08939DF810308DF8255003F003027E
:10206000012A25D1BDF81020049E0398C3F3C203B2
:10207000C2F383178DF82430BA0008230AA900F0B0
:10208000E0FDC6F39526236900933A4607AB0AA9FB
:102090003046FFF703F8039800F0BAFDE3685B6889
:1020A0000022186803A900F0B8FE0028C8D0A2E7F3
:1020B000022AF0D1BDF81260C3F3C203C6F3891639
:1020C0008DF824304FF00808082E374628BF08271F
:1020D000434603983A460AA900F0B3FDF61B23696C
:1020E00007AA39460AA8B844FFF73CF8002EEBD1FE
:1020F000D1E7002580E700BFC071000043680121DF
:102100009868FFF75BBFF7B547680191BD68AB689A
:102110001E78042E0ED0386801A900F0B4FD0446E4
:1021200050B9019800F070FD032E03D121462846D6
:10213000FFF744FF03B0F0BDF11E18BF0121284690
:10214000FFF73CFFE7E700002DE9F04F07468BB0B3
:102150007F48DFF81C8291460D4603F08AFF064651
:102160007C4803F086FFBB68CDF80080301A7A4ABD
:102170005B68082186B23846FFF7ECFEBB685868FA
:10218000FFF7DCFC0446404603F073FFBB682044C5
:1021900082B299683846FFF7B7FD704A0021384689
:1021A000FFF7D8FEB9F1000F07D035B14FF00C089A
:1021B000AA4608FB0958C24529D1664803F059FFD1
:1021C000841C3444A4B2624B654A009304F10308B2
:1021D0000821384623461FFA88F8FFF7BBFE6149FD
:1021E00042463846FFF790FD45B10C2606FB0956DE
:1021F000DFF880B1DFF86891B54222D1BB68D3F82F
:102200000C80B8F1000F5AD10BB0BDE8F08FDAF8AE
:102210000400FFF793FC0446DAF80000FFF78EFC99
:102220002044B0420AD9DAF80400FFF787FC0446DC
:10223000DAF80000FFF782FC204486B20AF10C0AAB
:10224000B9E7D5E9002393B34AB30192414A00921A
:1022500008215A463846FFF77DFE6868FFF76EFC96
:1022600003902868FFF76AFC82463A4803F001FFB2
:10227000039AA21AA2EB0A03181AC1B207F11000BE
:10228000FFF710FD384938693A2200F068FAA9686A
:1022900089B142463846FFF737FD0C35ACE700936D
:1022A00023464A4608213846FFF754FEEFE7002A46
:1022B000EDD00092F4E73869FFF7E6FCEDE7002285
:1022C0000592164606AD009505AB0121404602F188
:1022D0000109FFF757FC059C5CB12068FFF72EFC55
:1022E000B04204D9059B1868FFF728FC86B24A461D
:1022F000E9E7B9F1010F87D01C4ADFF864A0214655
:102300003846FFF727FE2246B41CA4B205AB009561
:102310000121404602F10109FFF734FC059B002B27
:102320003FF472AF1B68009308212346524638469B
:10233000FFF710FE059B596831B1721D92B2384605
:10234000FFF7E2FC4A46E1E73869FFF79DFCF9E751
:1023500016760000887700006B720000747200002F
:102360007E720000867200007F6F0000A272000083
:10237000097600009972000000221146FFF7E4BEC2
:10238000022910B5044608D18368D3F864319B074D
:1023900003D5BDE81040FFF7EFBF2069054A0649A5
:1023A00000F0DDF92069054A0349BDE8104000F05E
:1023B000D6B900BFF575000071720000F975000014
:1023C000012906D0022906D18368D3F864319B071E
:1023D00001D5FFF7D1BF024A0221FFF7BBBD00BF05
:1023E0002072000038B58368D3F86421C2F3400539
:1023F00092070C4606D500221146FFF7A5FE2C4693
:10240000204638BD0029FBD05B68024A0221FFF755
:10241000A1FDF5E7B0720000012937B50546144665
:1024200004D103B0BDE83040FFF7A6BF023918BFA2
:102430000121FFF7D7FF48B963680193044B00936C
:10244000044A236802212846FFF784FD03B030BD0B
:10245000DC690000CB720000012907B504D103B08C
:102460005DF804EBFFF788BF02290AD15368019396
:10247000084B00931368084AFFF76CFD03B05DF842
:1024800004FB8CBF0121002103B05DF804EBFFF7D2
:10249000A9BF00BFDC690000CB720000013910B594
:1024A00018BF01210446FFF79DFF40B9044A0549C2
:1024B000206900F054F9A36845F218021A8310BD90
:1024C000FE7500007172000001292DE9F3410446F8
:1024D000154637D18668FFF7AFFC38BBA36804F117
:1024E0001005FA21284693F814809F7DFFF7D2FB50
:1024F00020691E49FA2200F032F92046FFF79CFCC1
:10250000A0B9A368197D7176A368A1EB08019B7D32
:1025100033762846C9B2FFF785FC317EC91BC9B2A4
:10252000284602B0BDE8F041FFF772BCA36845F24F
:1025300018021A830E4A0421204602B0BDE8F04179
:10254000FFF708BD022994BF00210121FFF74AFFD0
:1025500048B96B680193074B00932B68064A022128
:102560002046FFF7F7FC02B0BDE8F081BA71000029
:10257000D4720000DC690000CB7200002DE9F0414C
:10258000013986B018BF01210546FFF72BFF40BB7C
:10259000AB68DFF85480D3F85C610446EEB1082CD8
:1025A0001BD030460023092203A900F04AFB9DF806
:1025B0001420A968304609230132A03100F041FB04
:1025C000AB68049EA0330093671C2346424600215B
:1025D0002846FFF7BFFC3C46E0E7AB68002283F8E3
:1025E000A02006B0BDE8F0810E730000013910B5DF
:1025F00018BF01210446FFF7F5FE30B9A368B3F810
:10260000642160F38202A3F8642110BD013910B582
:1026100018BF01210446FFF7E5FE30B9A268B2F801
:10262000643143F00403A2F8643110BD013910B5E0
:1026300018BF01210446FFF7D5FE30B9A368B3F8EF
:10264000642160F3C302A3F8642110BD013910B501
:1026500018BF01210446FFF7C5FE30B9A268B2F8E1
:10266000643143F00803A2F8643110BD022973B548
:102670000D4694BF0021012104461646FFF7B2FE25
:10268000014658B9022D0BD1736801930C4B00938E
:102690000C4A336829462046FFF75CFC02B070BD47
:1026A000A368094AD3F8643113F0080F074B18BF29
:1026B0001346074A204602B0BDE87040FFF74ABC07
:1026C000DC690000CB720000FD8000001873000080
:1026D0001C730000013910B518BF01210446FFF733
:1026E00081FE48B9A368C3F85401E3685B68BDE89C
:1026F0001040186800F0D3BB10BD00007FB5013951
:1027000018BF01210446FFF76DFE0546B8B9E3681E
:102710005B681E68304600F0BFFBB168A268C0B2BB
:10272000CDE9010164234343B3FBF1F3DBB2009332
:10273000D2F85431034A29462046FFF70BFC04B077
:1027400070BD00BF2D730000826810B504462AB129
:1027500043690168006998470023A36010BD0EB467
:1027600003B5039921B104AB01AA019300F076F8F7
:1027700002B05DF804EB03B070470A2938B504468F
:102780000D4602D10D21FFF7F8FFA3682268591CFE
:10279000A160D554D4E901329A4204D32046BDE861
:1027A0003840FFF7D1BF38BD2DE9F84F9846DDE935
:1027B0000A43154682460F460A464FF00109AA42CF
:1027C0000FD2C14538BFC14613F0010B01D16CB91E
:1027D00000240126B8F1010F1BD908F1FF386E4320
:1027E000F8E709F10109B2FBF5F2E8E79B070ED51E
:1027F000B8F1000F0CBF30262026A145E9D2013CDC
:1028000031465046FFF7B9FF002CF6D1E0E720260D
:10281000F3E7B7FBF6F39D42E1D9DFF83C80B7FB65
:10282000F6F3504618F8031006FB1377FFF7A5FFE1
:102830003346AB42B6FBF5F6F1D2BBF1000F02D046
:102840000CB1A14501D3BDE8F88F20215046013CD1
:10285000FFF793FFF4E700BF947700002DE9F74FEF
:10286000054617468846002900F0428118F8011BEA
:1028700049B92B7B002B00F03B81284603B0BDE813
:10288000F04FFFF761BF252940F0B780002698F888
:1028900000302D2B424608F1010823D0302B24D0E4
:1028A0002B2B25D000242A2B02F1010123D13B68D8
:1028B0001A1D1B683A601C440A4613782E2B26D139
:1028C00001324FF0000A104610F8011BA1F1300C44
:1028D000BCF1090F1DD80A2303FB0A13A3F1300A28
:1028E0000246F0E746F00106D1E746F00206CEE7E1
:1028F00046F00406CBE711F8013CA3F130000928AB
:10290000DBD80A2202FB0434303C0A46CBE74FF006
:10291000000A12F8011B01F0FB0068289046F8D06D
:10292000782909D86F290CD8632962D022D82529A3
:1029300063D0582900F0888098F80030002B95D19A
:1029400097E770390829F7D801A353F821F000BFA1
:10295000CB2A00003929000039290000592A00003B
:1029600039290000372A00003929000039290000E0
:10297000492A0000642901D06929DDD13A68D2F8DA
:102980000090111D89EAE9723960A2EBE9724FF0FB
:10299000010B092A35DCD34538BFD3462CB1B9F138
:1029A000000F01DB720700D5013CB30702D5BAF175
:1029B000000F03D0F00701D44CBB0024B9F1000F85
:1029C0002DDAC9F100092D212846FFF7D6FE06F0C1
:1029D0000302022A04D1BAF1000F01D11CBB00246A
:1029E000CDE9004653460A2249462846FFF7DCFE59
:1029F000A2E73B681A1D19783A602846FFF7BDFE2A
:102A00009AE70A230BF1010BB2FBF3F2C1E7A345EE
:102A1000D4D220212846013CFFF7AFFECCE7710756
:102A2000D5D52B21D0E7A345DAD230212846013C69
:102A3000FFF7A3FED2E73968CDE900460A1D3A60E8
:102A400053460A220968D0E739680A1D3A60CDE981
:102A5000004653461022F5E73B681A1D3A6016F00F
:102A60000106D3F8009028D1B9F1000F03D04846F1
:102A700003F0FFFA0646B44200D904BB09F1FF395E
:102A800019F8011F00293FF457AF2846FFF775FEDC
:102A9000F6E728460136FFF770FE19F80610002900
:102AA000F7D1A642BFF448AF002C3FF445AF202138
:102AB0002846013CFFF761FEF3E70026EDE7202101
:102AC0002846013CFFF759FED5E73B681A1D3A60DE
:102AD000302128461C68FFF750FE78212846FFF772
:102AE0004CFE00220823CDE90032214610227CE76B
:102AF00003B0BDE8F08F00BF2DE9F84FB0F806A095
:102B00004579D2F800B09DF828900AFB05F5043D00
:102B100088460BEB0301A94203F1040488BFA5EB2F
:102B2000030BB4FBFAF607460AFB1644C2F800B0E2
:102B30004EB9AAEB04055D4528BF5D46BBF1000F09
:102B400004D1BDE8F88F3F68013EF1E7043408EB9B
:102B500006003C442A46B9F1000F0DD02146ABEBEC
:102B6000050B03F003FADA452E443F6855464FF053
:102B7000000428BF5D46E1E701462046EFE7F8B5CF
:102B800046790146721E0546002393422D6803D301
:102B90000024A64202D8F8BD0133F6E70F682846A4
:102BA000FEF7A8FF01343946F3E72DE9F843068B19
:102BB000CD1C0746FEF77EFF043E35440446B5FBB8
:102BC000F6F5F0B14FF48073EDB28380C680013D1D
:102BD000076081464FF00008A84512D23846FEF73C
:102BE00069FF064648B163790133637108F1010852
:102BF000C9F8000007608146EEE72046FFF7BFFFF7
:102C000034462046BDE8F88301210430FEF7D9BEE2
:102C100010B5012104460430FEF7DFFE10F0FF0F6F
:102C200004D12046BDE81040FFF7A9BF10BD1FB575
:102C300003920022009203AAFFF75EFF05B05DF841
:102C400004FB1FB503920122009203AAFFF754FF71
:102C500005B05DF804FB026813685268934291BFA7
:102C6000D01A80680130801888BFC01A7047036886
:102C700081681A685B688B4234BF01330023D31A22
:102C8000584258417047F8B5044600200D46FEF7FB
:102C9000E9FC2046FFF7EBFF10B1237C002B3CD171
:102CA0002268A66853685168B14234BF01310021DF
:102CB000516030B11168A068814234BF01310021F8
:102CC0001160E2686068511E072920D8DFE801F032
:102CD00004101F141F1F1F182A78C2542046FFF724
:102CE000BAFF23689A68824200D29860002415E0F7
:102CF0002A8820F81320F1E72A6840F82320EDE71E
:102D0000D5E9006700EBC300C0E90067E6E72946A4
:102D100002FB030003F02AF9E0E704240020FEF799
:102D2000A3FC2046F8BD10B504460020FEF79AFC2F
:102D30002046FFF790FF04460020FEF795FC204652
:102D400010BD00002DE9F04F8368D3F86431C3F360
:102D500040059B078BB0074606D5002211460BB0F5
:102D6000BDE8F04FFFF7F0B9012906D9214A022149
:102D70000BB0BDE8F04FFFF7EDB81F4C1F4EDFF86A
:102D80008090DFF880A0DFF880B0361B1C23B6FBF4
:102D9000F3F6AE4202D10BB0BDE8F08FE3680893C2
:102DA0002368D4F808809A6809922046FFF7BBFF91
:102DB000099A94F810E0642303FB00FCBEF1000FB5
:102DC0000CBFCE46D6465343B3FBF8F3CDE90432ED
:102DD000BCFBF8F1089B0191CDE902080093CDE915
:102DE000068E63695A4608213846FFF7B3F8013565
:102DF0001C34CEE786700000C0670000DC6700006E
:102E0000AD770000B6770000C2770000036818684D
:102E10005B68C31A58425841704770B50546002098
:102E20000C461646FEF71EFC2846FFF7EFFF00286B
:102E300030D129680B682EB90A68A868824238BF69
:102E4000561C0E60EA686968501E07281CD8DFE827
:102E500000F0040C1B101B1B1B14CB5C2370002404
:102E60000020FEF701FC204670BD31F813302380AE
:102E7000F5E751F823302360F1E701EBC301D1E915
:102E80000023C4E90023EAE703FB0211204603F014
:102E90006DF8E4E70524E3E7036898687047036882
:102EA00000229A60704770B5446806460D46206857
:102EB00018B1B3682946984718B923682B60256074
:102EC00070BD2468F3E74368186808B102681A60A7
:102ED00070474368186870474368186800B97047BE
:102EE000884203D102681A600120704703460068D7
:102EF000F4E7000038B5074C051E04F1080318BFBD
:102F00001C4623682BB11A6822605B6828469847E4
:102F1000F7E738BD1C07002020B9054B01225A7085
:102F2000FFF7E8BF012802D1014A9070F8E7704727
:102F30001407002038B50C4C23789BB90B4863600C
:102F4000A3602361E36000F091F8054600F09AF871
:102F500001232370064BD3F800340BB10123A37077
:102F6000284638BD8525F5E714070020192F0000F5
:102F7000000001401FB503788DF8003043680193CD
:102F800083688DF80830C368054A0393054B68468B
:102F900053F8213052F82110984705B05DF804FB32
:102FA00028070020300700201FB503788DF8003077
:102FB0004368019383688DF80830C368054A03931A
:102FC000054B684653F8213052F82110984705B058
:102FD0005DF804FB2807002030070020F0B5194BEE
:102FE00090F800C0DFF86CE043F82C20164B164632
:102FF0000A6943F82C204B7F0EF80C300C4607462C
:103000000FCC89B06D460FC594E80F0085E80F001E
:103010001EF80C30CDF810C04BB1002E0B4A69469B
:1030200008BF3246381D00F0D3FC09B0F0BD002EB9
:10303000074A694608BF324607F10C0000F0FEF966
:10304000F3E700BF3007002028070020752F00009D
:10305000A92F00003807002000F18040002382B033
:10306000036003680193019B02B07047044A13791F
:1030700023B90121106011711846704785207047EF
:103080003C070020074B1A68D20704D4C02283F8FB
:10309000002301221A604FF080430122C3F8182553
:1030A000704700BF00E100E0114B1B6810B563B131
:1030B0004FF48070FFF7D0FF4FF080430122C3F838
:1030C00008230C4B00201B6898470B4B1B6873B1FF
:1030D0004FF48270FFF7C0FF4FF080430222C3F825
:1030E0000823044BBDE810401B680120184710BDA1
:1030F000000100403C07002004010040014B1B6818
:10310000184700BF4407002038B50B4B98420C46C7
:1031100001D0002038BD0020FEF7A4FA074B1D792E
:1031200015B901221C601A710020FEF79DFA002DCE
:10313000EFD01120EEE700BF002000404407002040
:10314000034B984201BF034B00221A601A7170476B
:103150000020004044070020036801221A60037920
:10316000034A0C2101FB032302221A72704700BF9D
:103170004C0700200368044901221A6103790C20DE
:1031800000FB03131A7270474C07002003680122EA
:10319000DA60704737B54FF4803400688C407BB1FB
:1031A0008B0003F5A0730025C550C3580193019B04
:1031B000C0F8044301F5A87140F8212003B030BDE8
:1031C000C0F80843F6E770B4046840F20116D4F87A
:1031D00000528E4025EA0605C4F80052D4F8005289
:1031E0002B43C4F800329DF80C3070BCFFF7D2BFFF
:1031F0002DE9F341104C114F114E00254FF480384A
:10320000236883B1D7F8043308FA05F21A420AD0CA
:103210000023236023680193A4F50040019B80B242
:10322000D6E9003198470135042D04F10404E7D1B3
:1032300002B0BDE8F08100BF408100400080004046
:103240004C0700200023435082B043580193019B58
:1032500002B070470A4610B54FF48E71FFF7F2FFC7
:10326000136A9168C95C136A01331362C0F81C15B4
:1032700010BD024608B500684FF49271FFF7E2FFF7
:103280004FF484711068FFF7DDFF136801221A60A4
:1032900008BD8B690A4610B54FF4847123B9FFF756
:1032A000D1FFD0F8183510BDFFF7CCFF536AD168B5
:1032B000D0F81805C854536A01335362F3E700008D
:1032C0001FB501238DF80030044BCDE90110D3E97F
:1032D00000126846904705B05DF804FB58070020CF
:1032E00030B54C48D0F8043313F4007F85B0054660
:1032F0004DD0D0F82431002B49D04FF49271FFF714
:10330000A1FF4FF40173C0F80833434B93F8292011
:103310000AB9012242603F4902228DF80020D1F80B
:103320008024C1F8802403929A690292DA6801929B
:103330000022C3E906226846D3E9001290473548C7
:10334000D0F81C315BB134494A690B6A9A420A468B
:103350004AD991F82830002B46D1FFF77BFF2D4842
:10336000D0F844318BB14FF4A271FFF76BFF2A4BB9
:1033700093F829200AB1012202609A692AB1002239
:10338000586AD9689A61FFF79BFF05B030BDD5F840
:1033900004335B07D3D5D5F80831002BCFD01E4CB2
:1033A0001C482146FFF775FF636AA2699A422346CB
:1033B000C5D1E269E1684AB12369E3600023606A2C
:1033C000A261E3616362FFF77BFFB8E794F829200D
:1033D0000AB901226A600F4A4FF40170C2F808036B
:1033E0000022586A9A61EEE70A484FF48E71FFF79F
:1033F00029FF5369002BB2D05169029100239168D3
:103400008DF80030019153616846D2E90013984766
:10341000A5E700BF00200040580700201F2886BFF6
:1034200000F01F00044B4FF0A04300F5E0700222B3
:1034300043F82020704700BF000300502DE9F843F7
:10344000614B057991462C2202FB0532064692F823
:103450002A200C469846002A40F0B1805B4900685B
:10346000FFF752FE0746002840F0AB8021684A1C57
:1034700010D01F2987BF564A01F01F030B464FF09B
:10348000A0420120984003F5E073C2F8080503202C
:1034900042F823006068431C0DD01F288BBF00F04A
:1034A0001F0303464A4A4FF0A04203F5E0734FF072
:1034B000000C42F823C03368A269C3F8242594F8AD
:1034C00014C0627DBCF1010F4CEA0202C3F86C2506
:1034D000C3F81405C3F80C152BD1A168481C0DD0F6
:1034E0001F298BBF01F01F020A4639484FF0A04048
:1034F00002F5E0724FF0000C40F822C0E068421C78
:1035000013D01F2887BF324A00F01F0C84464FF0AB
:10351000A0424FF0010E0EFA0CFE0CF5E07CC2F852
:1035200008E54FF0030E42F82CE0C3F80805C3F895
:1035300010152C236B4308EB0302C2F80490226998
:1035400048F80320B9F1000F21D03068247F4FF4F0
:103550008E71FFF777FE4FF4A2713068FFF772FEAD
:1035600032681C4BC2F80433110B42F3073263017B
:10357000002ADBB21EDB1848841884F800330123CC
:10358000520901F01F0103FA01F140F822103368DB
:103590000422C3F800252C2303FB05830022C3E982
:1035A000062283F829205A61012283F82A2038460E
:1035B000BDE8F883094A01F00F015354E7E70827F3
:1035C000F5E71127F3E700BF58070020E1320000BC
:1035D000000300508000020000E100E014ED00E074
:1035E0002DE9F04103680479284D0022C3F8002535
:1035F0002C2202FB045201465268A2B1244AC3F8AD
:1036000008231A0B43F30733002B0CDB02F01F00D7
:103610005B090122824020331E4840F82320BFF37B
:103620004F8FBFF36F8F0B68D3F80C05D3F8148559
:10363000D3F80865D3F810754FF0FF329042C3F805
:103640001425C3F80C25C3F80825C3F8102501D0AC
:10365000FFF7E4FEB8F1FF3F02D04046FFF7DEFE81
:103660007A1C02D03846FFF7D9FE731C02D03046D0
:10367000FFF7D4FE0868FFF763FD2C2303FB045417
:10368000002384F82A306360BDE8F08158070020E9
:103690008402020000E100E02DE9F047204F90F89D
:1036A00004904FF02C0808FB097405466669002E4B
:1036B00034D162610068A16026624FF48E7184F893
:1036C0002860FFF7BFFD2868012383602146FFF7CC
:1036D000C1FD6368A0468BB92868D4F814A0236A9A
:1036E0009A4511D82A68D2F81C31002BFBD001234F
:1036F000D3602C2303FB097300225A613046BDE8D6
:10370000F08794F828303BB9D0F81C31002BF8D062
:103710004146FFF79FFDE2E70F26EAE71126EDE7B6
:10372000580700200379044A2C2101FB0323586920
:10373000003818BF01207047580700202DE9F843D2
:10374000394F05792C2303FB057306465C6824B1C9
:1037500003684FF40170C3F808032C2303FB0573BF
:10376000986950B1D86900283ED024B133684FF42D
:103770000172C3F80423112433E09A61D9605862BE
:10378000D8612C2303FB057393F829301BB910B9BA
:103790003046FFF76EFD4FF02C0909FB05783068C5
:1037A000D8F80430002B34D14FF4A271C146FFF792
:1037B00049FD3068D0F82431D0F80821D0F84441D0
:1037C000B2B90CB9002BF4D02C2202FB05750022F3
:1037D000AA6123BB2CBB95F8291033680122B1B133
:1037E0001A602046BDE8F8831961DA610120C8E754
:1037F000002BE9D1002CE7D14946FFF74AFDD8F864
:103800002430D8F818209A42D3D82346DCE75A60EF
:10381000E7E74FF40173C0F804330024E1E7032421
:10382000DFE70F24DDE700BF580700200368D3F867
:103830000801003818BF01207047000070B50279F8
:10384000084D2C2606FB0252044692F829303BB95B
:10385000FFF70FFD237906FB0353012283F829208C
:1038600070BD00BF580700200023435082B043586A
:103870000193019B02B070471FB501238DF8003002
:10388000044BCDE90110D3E900126846904705B01A
:103890005DF804FB840700201F2886BF00F01F008E
:1038A000044B4FF0A04300F5E070022243F82020C3
:1038B000704700BF000300507FB5434AD2F824612F
:1038C000002E60D010464FF49271FFF7CDFF022317
:1038D0008DF80030D2F88034C2F880340393D2F8E7
:1038E0003C350293394BDA6801920022C3E9062283
:1038F0006846D3E9001290473348D0F8443173B199
:103900004FF4A271FFF7B0FF304B9A693AB1002231
:10391000C3E90622D968D0F83C05FFF7ADFF2A4875
:10392000D0F82031ABB14FF49071FFF79DFF012328
:10393000C360264B5A6962B1D0F84C15029100223F
:1039400099688DF8002001915A616846D3E9001208
:1039500090471D48D0F858319BB14FF4AC71FFF738
:1039600083FF1A4B5A6962B1D0F84C1502910022BC
:1039700099688DF8002001915A616846D3E90012D8
:10398000904704B070BDD2F81031002BB4D04FF482
:1039900088711046FFF768FF0C4BD2F83C05996917
:1039A0008842A9D1DC69D96864B1D2F8005225F007
:1039B0002005C2F800521A699C61DA60DE61FFF7E7
:1039C0005BFF99E79C61FAE7002000408407002034
:1039D0002DE9F843674B06799146242202FB063213
:1039E000044692F820200D469846002A40F0BE80FA
:1039F00061490068FFF788FB0746002840F0B8805F
:103A00002868421C10D01F2887BF5C4A00F01F03A3
:103A100003464FF0A0420121994003F5E073C2F83C
:103A20000815032142F8231069684B1C0DD01F298B
:103A30008BBF01F01F030B46504A4FF0A04203F525
:103A4000E0734FF0000C42F823C02368AA69C3F862
:103A5000242595F814C06A7DBCF1010F4CEA0202DE
:103A6000C3F86C25C3F80C05C3F814152BD1A9684D
:103A7000481C0DD01F298BBF01F01F020A463F488A
:103A80004FF0A04002F5E0724FF0000C40F822C069
:103A9000E868421C13D01F2887BF384A00F01F0C6B
:103AA00084464FF0A0424FF0010E0EFA0CFE0CF5CA
:103AB000E07CC2F808E54FF0030E42F82CE0C3F8B2
:103AC0000805C3F810152423734308EB0302C2F85A
:103AD00004902A6948F80320B9F1000F30D020681B
:103AE0002A7F4FF48871FFF7BFFE20684FF4907172
:103AF000FFF7BAFE20684FF49271FFF7B5FE206819
:103B00004FF4A271FFF7B0FE4FF4AC712068FFF7DD
:103B1000ABFE23681A49C3F80413190B43F30733A8
:103B20005201002BD2B21CDB1648C51885F80023C1
:103B300001225B0901F01F0102FA01F140F8231094
:103B400023680822C3F80025242303FB06830022F0
:103B5000C3E906225A61012283F820203846BDE8D5
:103B6000F883094B01F00F015A54E9E70827F5E7FC
:103B70001127F3E784070020B93800000003005044
:103B80001003420000E100E014ED00E02DE9F041F7
:103B90003D4E05790468242303FB056302465B68F8
:103BA000ABB13A4BC4F8083344F30733002B4FEA68
:103BB00014310CDB01F01F005B090121814020332F
:103BC000334840F82310BFF34F8FBFF36F8FD4F803
:103BD000003223F02003C4F80032242303FB0563E2
:103BE0009B6933B14FF4A2712046FFF73DFE0123DC
:103BF00063604FF4AC712046FFF736FE0123E360AB
:103C0000242303FB0563D4F858110029FBD09969DC
:103C100019B1D4F844110029F5D00023C4F80035B7
:103C20001368D3F80C05D3F81485D3F80815D3F826
:103C300010754FF0FF329042C3F80C25C3F81425DD
:103C4000C3F80825C3F8102501D0FFF725FEB8F109
:103C5000FF3F02D04046FFF71FFE7A1C02D03846D5
:103C6000FFF71AFE4B1C02D00846FFF715FE204650
:103C7000FFF766FA242303FB0565002385F820304F
:103C80006B60BDE8F08100BF840700201003420094
:103C900000E100E001F06043B3F1005F2DE9F04185
:103CA000064638D11E4B0779242505FB0735984673
:103CB0006C69002C31D16A610068A9604FF4907181
:103CC000FFF7D2FD4FF4AC713068FFF7CDFD3368DC
:103CD0006A69A968C3F84415C3F8482501229A60A7
:103CE0006A68AAB9D3F82021D3F858411AB9002C30
:103CF000F8D00F2407E0002CFBD10122DA60D3F8C2
:103D00005821002AFBD0242303FB078700237B6173
:103D10002046BDE8F0811024FAE71124F8E700BF3F
:103D2000840700202DE9F0430120ADF5337DFDF738
:103D3000ACFAFFF7FFF8B0FA80F0400901F0B4F9EF
:103D4000FDF776FBB0FA80F0400901F0ADF94FF0D5
:103D500080430022C3F8002101221A60D3F8002119
:103D6000002AFBD001F0A6F901F00EFA584C594D8B
:103D7000594E0A2001F0EEF90222014601A802F094
:103D8000F5F89DF80430742B26D19DF80570534941
:103D90003A4632A802F044F832A802F06AF9014625
:103DA00032A801F0A1F9384601F040FA4C4B22AAA2
:103DB00003F1100C18685968174603C708336345A8
:103DC0003A46F7D11868386022A802F052F9014645
:103DD00022A801F089F9CCE7722B67D1414B05AAE3
:103DE00003F1100C18685968174603C70833634578
:103DF0003A46F7D118689B88BB803B4B38600BAACA
:103E000003F1180C18685968174603C7083363454F
:103E10003A46F7D11B883B8005A802F02AF90146F3
:103E200005A801F061F901F0A3FA28B90BA802F086
:103E300020F901460BA8CCE701210DF1030001F0A8
:103E40003FFB9DF80320214612A801F0E9FF12A8CC
:103E500002F00FF90DF1C809014612A801F044F96A
:103E60008021484601F050FB29460246804622A8A0
:103E700001F0D6FF22A802F0FCF8014622A801F0CA
:103E800033F90027B8457FF774AF59F8272031463A
:103E9000131422A812B201F0C3FF22A802F0E9F81D
:103EA000014622A801F020F90137EBE70F4B32AFB2
:103EB00003F1100C186859683A4603C20833634589
:103EC0001746F7D132A802F0D4F8014632A880E7AD
:103ED000D6780000E6780000FB780000C278000089
:103EE00002790000167900002C7900004679000064
:103EF000034B0F225A700321024B034AFEF72AB8E4
:103F000028010020D7790000F9790000034B062230
:103F10005A700321024B034AFEF71CB82801002007
:103F2000097A0000F9790000034B05225A70032139
:103F3000024B034AFEF70EB828010020267A000043
:103F4000F9790000034B04225A700321024B034A03
:103F5000FEF700B828010020437A0000F97900003C
:103F6000034B044A03215970034BFDF7F3BF00BF15
:103F700028010020F97900005C7A0000034B01223F
:103F80005A700321024B034AFDF7E4BF28010020C9
:103F9000757A0000F9790000034B00225A70032162
:103FA000024B034AFDF7D6BF280100208E7A00009D
:103FB000F9790000034BD8229A700321024B034A7F
:103FC000FDF7C8BF28010020A77A0000C27A0000D0
:103FD000034BE2229A700321024B034AFDF7BABF5A
:103FE00028010020D17A0000C27A0000034BEC22A5
:103FF0009A700321024B034AFDF7ACBF2801002051
:10400000EC7A0000C27A0000034BF0229A70032180
:10401000024B034AFDF79EBF28010020077B0000EA
:10402000C27A0000034BF4229A700321024B034A28
:10403000FDF790BF28010020227B0000C27A00001B
:10404000034BF8229A700321024B034AFDF782BF0B
:10405000280100203D7B0000C27A0000034BFC22B7
:104060009A700321024B034AFDF774BF2801002018
:10407000577B0000C27A0000034B00229A70032194
:10408000024B034AFDF766BF28010020717B000048
:10409000C27A0000034B04229A700321024B034AA8
:1040A000FDF758BF28010020887B0000C27A00007D
:1040B000034B044A03219970034BFDF74BBF00BF2C
:1040C00028010020C27A0000A27B0000034B0222DC
:1040D0009A700321024B034AFDF73CBF28010020E0
:1040E000BC7B0000C27A0000034B05229A700321BA
:1040F000024B034AFDF72EBF28010020D67B0000AB
:10410000C27A0000034B06229A700321024B034A35
:10411000FDF720BF28010020F07B0000C27A0000DC
:10412000034B07229A700321024B034AFDF712BF8B
:10413000280100200A7C0000C27A0000034B0822FC
:104140009A700321024B034AFDF704BF28010020A7
:10415000247C0000C27A0000034B02221A70032163
:10416000024B034AFDF7F6BE280100203E7C00000A
:10417000587C0000034B01221A700321024B034AB2
:10418000FDF7E8BE28010020747C0000587C000088
:10419000034B00221A700321024B034AFDF7DABEDB
:1041A000280100208E7C0000587C0000012930B4DA
:1041B000044604D08568D5F86451AD0705D50022C2
:1041C0002046114630BCFDF7BFBF022905D9136850
:1041D000054A022130BCFDF7BDBE02D15368034A37
:1041E000F8E730BC704700BFA67C0000C27C00002E
:1041F00037B50E4B5B780F2B044614D10B390F29C2
:1042000011D90B251A23CDE90053094A094B022184
:10421000FDF7A0FE084A2B460321204603B0BDE867
:104220003040FDF797BE03B030BD00BF280100202D
:10423000FC7C0000D97C00002D7D00002DE9F041C0
:104240008368D3F86431C3F340069B07054688466C
:10425000174605D50022BDE8F0411146FDF774BFB1
:10426000164C237813B100F0EFFD2670144E154C58
:10427000F1782846FFF7BCFF10220021204601F00C
:104280009EFE0123237073786370B3782371F378F3
:10429000A371B8F1020F3378637105D1786801F02A
:1042A00055FE094BA060E360064800F0FFFC28467D
:1042B000064ABDE8F0410321FDF74CBEA8090020E5
:1042C00028010020980900209D470000427D000041
:1042D00030B58368D3F864319B0785B0044606D5B2
:1042E0000022114605B0BDE83040FDF72DBF414D1D
:1042F000414A0321FDF72EFE6B780F2B27D8DFE80C
:1043000003F0081A261C1E202226262626262626EC
:1043100026243A4B3A4A03212046FDF71BFEAB7890
:10432000082B16D8082B1DD8DFE803F0511C4B4F83
:104330004D4947452400334BECE7334BEAE7334B19
:10434000E8E7334BE6E7334BE4E7334BE2E7334A46
:10435000E1E7F42B3FD007D8EC2B40D0F02B3CD03A
:10436000D82B3ED02E4A07E0F82B32D0FC2BF9D1C7
:104370002C4B00E02C4B2D4A03212046FDF7EAFD93
:104380002B78012B2FD0022B2FD0002B2FD1284B95
:10439000284A20460321FDF7DDFDEB680293AB6858
:1043A00001932B790093244AEB7803212046FDF7F3
:1043B000D1FD05B030BD214BDDE7214BDBE7214BC3
:1043C000D9E7214BD7E7214BD5E7214BD3E7214B49
:1043D000D1E7214BCFE7214BCDE7214BCBE7214B59
:1043E000C9E7214BC7E7214BD2E7214BD0E7214A50
:1043F000CFE700BF28010020647D00008E7A000016
:10440000F9790000757A00005C7A0000437A0000B8
:10441000267A0000097A0000D7790000727D00003A
:10442000997D0000577B0000247C0000C27A0000C8
:104430008E7C0000AE7D0000EA7D00000A7C00005A
:10444000F07B0000D67B0000BC7B0000887B000076
:10445000A27B0000717B00003D7B0000227B0000FE
:10446000077B0000EC7A0000A77A0000747C000053
:104470003E7C0000C97D0000012910B5044604D02F
:104480008368D3F864319B0706D500222046114685
:10449000BDE81040FDF758BE022906D913680C4A42
:1044A0000221BDE81040FDF755BD506801F04EFDFA
:1044B000502806D92046074ABDE810400221FDF7E2
:1044C00049BD054B054A1871032103462046E8E71C
:1044D000A67C0000487E0000280100206C7E0000C1
:1044E000012910B5044604D08368D3F864319B07D2
:1044F00006D5002220461146BDE81040FDF724BE37
:10450000022906D913680C4A0221BDE81040FDF7C4
:1045100021BD506801F01AFD632806D92046074ADC
:10452000BDE810400221FDF715BD054B054A986016
:10453000032103462046E8E7A67C0000867E0000B3
:1045400028010020B07E000000221146FDF7FCBDCE
:104550008368D3F864319B0701D5FFF7F5BF00F0FE
:1045600073BC000070B58368D3F86431C3F34006B0
:104570009B07044603D5BDE87040FFF7E5BF104D2B
:104580002B7813B100F060FC2E700E4E0E4DF178BA
:104590002046FFF72DFE10220021284601F00FFDD6
:1045A00000232B7073786B707388AB80284600F003
:1045B0007DFB2046054ABDE870400321FDF7CABCDB
:1045C000A80900202801002098090020C97E0000C9
:1045D000012970B5044606D08368D3F86431C3F36B
:1045E00040069B0706D5002220461146BDE87040D4
:1045F000FDF7AABD022906D91368184ABDE8704024
:104600000221FDF7A7BC506801F0A0FC642806D980
:104610002046134ABDE870400321FDF79BBC114DB5
:10462000E8602046104CE978FFF7E2FD10223146A1
:10463000204601F0C4FC052323706B786370AB78CF
:1046400023712B786371EB78A3712046EB68A3602C
:1046500000F02CFB054B01221A7070BDA67C0000F7
:10466000E17E00002801002098090020A809002010
:1046700038B58368D3F86431C3F340019B0705461E
:1046800003D5BDE83840FFF75FBF0E4C102220462F
:1046900001F095FC042323700B4B5A786270DA7892
:1046A000227120461A799B686271A36000F0FEFABD
:1046B000064B01221A702846054ABDE838400321FE
:1046C000FDF748BC9809002028010020A809002017
:1046D000087F000070B58368D3F86431C3F34001EC
:1046E0009B07054603D5BDE87040FFF72DBF0E4C74
:1046F0001022204601F063FC0C4B5A7899686270D6
:1047000003261A795B88A1602046A380A2712670D7
:1047100000F0CCFA064B01221A7031462846054AB1
:10472000BDE87040FDF716BC980900202801002064
:10473000A8090020137F000070B58368D3F86431A6
:10474000C3F340069B07044603D5BDE87040FFF75E
:10475000FBBE0F4D2B7813B100F076FB2E700D4D84
:1047600020460D4CE978FFF743FD2046102200213A
:1047700001F025FC022323706B786370EB78637182
:104780002B7823712046BDE8704000F08FBA00BF3F
:10479000A80900202801002098090020074B5B8809
:1047A000022B09D90648074B0749C01AC008000464
:1047B00040F00300FCF7FABB704700BF7000002018
:1047C00004680000DC6700001E7F0000012937B587
:1047D0000446154604D08368D3F864319B0705D599
:1047E000204603B0BDE83040FFF7AEBE022904D931
:1047F00013680F4A0221FDF7ADFB686801F0A6FBC4
:104800000128054604D90B4A02212046FDF7A2FBE8
:10481000E8B200F03BFB4FF08043074AD3F878350D
:1048200000930321054B2046FDF794FB03B030BDF8
:104830003D7F0000587F00009C7F0000767F0000D5
:104840007FB58368D3F86431C3F340049B07054602
:1048500005D500221146FDF777FC04B070BD0C228F
:10486000214601A801F0ABFB01A800F0F7FA0C4AC1
:104870000C4E03212846FDF76DFB029BA34206D890
:10488000039B094A03212846FDF764FBE5E7019BEA
:1048900032461B5D03212846FDF75CFB0134ECE743
:1048A000AD7F0000C17F0000CC7F0000012910B562
:1048B000044604D08368D3F864319B0706D50022F0
:1048C00020461146BDE81040FDF73EBC022906D93E
:1048D00013680C4A0221BDE81040FDF73BBB50684D
:1048E00001F034FB502806D92046074ABDE81040A5
:1048F0000221FDF72FBB054B054AD8700321034663
:104900002046E8E7A67C0000487E00002801002041
:10491000E47F0000012930B4044604D08568D5F84E
:104920006451AD0705D500222046114630BCFDF785
:104930000BBC022905D91368054A022130BCFDF7DA
:1049400009BB02D15368034AF8E730BC704700BF87
:10495000A67C0000C27C0000012930B4044604D0CB
:104960008568D5F86451AD0705D50022204611466B
:1049700030BCFDF7E9BB022905D91368054A0221BD
:1049800030BCFDF7E7BA02D15368034AF8E730BC00
:10499000704700BFA67C0000C27C000000F1804090
:1049A00000F58050002382B0036003680193019BEF
:1049B00002B0704708B50C4B0022C3F800224FF03C
:1049C000FF32C3F808234FF48870FFF7E7FF074B67
:1049D00001221A60064A1368002BFCD0BDE808408B
:1049E0004FF48870FFF7DABF00100040101000404D
:1049F000101100401FB54E4B4FF40072C3F8502603
:104A00000022C3F83425C3F83825C3F82C25012229
:104A100091420446C3F830251ED0022916D0002941
:104A200066D1AB22C3F824254FF0AB32C3F81C2566
:104A300000210D22684601F0C2FA3E4B0293062C7B
:104A40000FD8042C56D86ED000236DE0CC22C3F8CA
:104A500024254FF0CC32E9E76A22C3F82425364AF0
:104A6000E4E70F2CF0D102238DF805307F238DF879
:104A700008302F4B40F20122C3F850269DF8023037
:104A80009DF801209DF806409DF804009DF8051052
:104A90001B0443EA02239DF80320002A14BF4FF4AD
:104AA00080120022002C14BF4FF0806400242343A6
:104AB00043EA805343EA01639DF807109DF80B0019
:104AC00043EA417313431A4A43F00803C2F814350A
:104AD0009DF808309DF80A10002814BF4FF0807030
:104AE0000020034343EA014343F00073C2F8183542
:104AF00004B010BD7F238DF8083040F20233ADF8CA
:104B0000043003238DF80730ADF80A30084B40F22B
:104B10000122C3F8502640F20312C3F834250022C4
:104B2000C3F83825AAE701238DF80530A6E700BFB2
:104B300000100040FF0004011B81FE58184B73B5A4
:104B4000187018480C46FEF715FB174B1548D3F89C
:104B5000002200214FF0FF32C3F80012C3F80823EF
:104B6000D3F810254FF47A53D2B2A4FB0345C2F117
:104B7000200305FA03F3A2F1200624FA02F21A43F5
:104B800025FA06F6012300933243FEF71CFB054885
:104B9000FEF7FCFA034802B0BDE87040FEF7DCBA4D
:104BA000A9090020C089000000800040F7B5054633
:104BB0000C46FFF71FFF0F2D17491848184F0CBF61
:104BC0007E23FF230B700A46FF23F025CC26D4B9A1
:104BD0000460D0F800C0CDF804C0DDF804C0D0F8FF
:104BE00000C0BCF1000FFAD0D7F808C582F801C0A8
:104BF000013B13F0FF0302F10102E8D1094BC3F8B6
:104C0000041503B0F0BD022C01D15670F0E7012C61
:104C100008BF5570ECE700BFB40A002000D1004087
:104C200000D00040001000400F28084B06D1A1F131
:104C30000B020F2A05D801EB81013239C3F80815A0
:104C400070470522C3F80825704700BF00100040D8
:104C500037B5134C01900D461146FFF7ABFE019896
:104C6000C4F81005D4F8003243F02103C4F8003230
:104C70000C4BC4F804350190FFF7BCFE019829469F
:104C8000FFF7D2FF084B00221A604FF48053C4F89C
:104C9000043303F18043043301221A6003B030BDB2
:104CA00000100040B0090020B00A0020F0B50278E2
:104CB00085B0052A19D8DFE802F0031A50585F6260
:104CC0005B4C457806794179FFF774FEC4F81055BE
:104CD000D4F8003243F00103C4F800322846C4F887
:104CE0000C65FFF7A1FF0123236005B0F0BD4578F7
:104CF0004179077986794E4CFFF75CFE2846FFF72D
:104D000055FF062D22D8042D22D9D4F8003243F4C1
:104D1000001343F00103C4F800323146C4F81055C3
:104D20002846C4F80C75FFF77FFF424B00224FF472
:104D300086701A60FFF732FE0823C4F804333E4A37
:104D4000012323601368002BFCD0CEE70F2DDCD0AD
:104D5000D4F8003243F02103DDE70279417940784D
:104D600005B0BDE8F040FFF773BF8168407905B03A
:104D7000BDE8F040FFF7E2BE81680079F7E74578CB
:104D80002E4A8368545D41790779867903914FF4FF
:104D9000837262430020C3F164045443B4FBF3F410
:104DA0001444FCF75FFCFFF705FE03992846FFF764
:104DB000FDFE1F4BC3F81055D3F8002242F003024A
:104DC000C3F800223146C3F80C752846FFF72CFFC4
:104DD0001B48FEF7CFF91B4B0025D3F80022C3F880
:104DE00000524FF0FF32C3F80823D3F81025D2B297
:104DF000210FC2F12003240101FA03F3A2F12000E4
:104E000024FA02F221FA00F01A4301210243009130
:104E100002230B48FEF7D7F90948FEF7B7F908480F
:104E2000FEF79AF9284605B0BDE8F040FCF71CBC37
:104E300000100040B40B00200C110040C889000095
:104E4000C08900000080004008B50348FEF792F9D1
:104E5000BDE80840FFF7AEBDC0890000084B094A15
:104E6000D3F8103503F00F030F2B0CBF7F234FF443
:104E70008073C0E90023044B1B688360704700BF48
:104E800000100040B0090020B00A002001289CBF9B
:104E90004FF08043C3F8780570470000114B1B6842
:104EA00010B53BB14FF49870FFF778FD0E4A1368C8
:104EB000013313600D4B1B6893B14FF48670FFF7FD
:104EC0006DFD0B4A1368013313600A4A11688A6842
:104ED000934205D1FFF76EFDBDE81040CB6818473F
:104EE00010BD00BF30110040B00A00200C1100407E
:104EF000B40B0020AC0900200A4B1B685A1C05BFEC
:104F0000094B0A4A0A4A10680ABF1B781068C0F3A6
:104F100003100D2B04D101288CBF00200120704705
:104F20000020704730010010E00F00F0E80F00F0A3
:104F30003401001008B5FFF7DFFF40B14FF08043A8
:104F40000022C3F80C21C3F81021C3F83825FFF75D
:104F5000D3FF002846D04FF080524D4BD2F80414B6
:104F6000C3F82015D2F80814C3F82415D2F80C148D
:104F7000C3F82815D2F81014C3F82C15D2F814145D
:104F8000C3F83015D2F81814C3F83415D2F81C142D
:104F9000C3F84015D2F82014C3F84415D2F82414ED
:104FA000C3F84815D2F82814C3F84C15D2F82C14BD
:104FB000C3F85015D2F83014C3F85415D2F834148D
:104FC000C3F86015D2F83814C3F86415D2F83C144D
:104FD000C3F86815D2F84014C3F86C15D2F844240D
:104FE000C3F87025FFF788FF48B14FF08043D3F82E
:104FF0000024D20744BF6FF00102C3F80024254A01
:10500000D2F8883043F47003C2F88830BFF34F8F72
:10501000BFF36F8F4FF01023D3F80022002A03DB79
:10502000D3F80432002B2FDA1B4B0122C3F80425DE
:10503000D3F80024002AFBD04FF010221221C2F82E
:105040000012D3F80024002AFBD04FF010231222C4
:10505000C3F80422104B1A46D3F800140029FBD0E1
:105060000021C3F80415D2F80034002BFBD0BFF3A5
:105070004F8F0849094BCA6802F4E0621343CB60C2
:10508000BFF34F8F00BFFDE7054B064A1A6008BD0E
:1050900000C0004000ED00E000E001400400FA051F
:1050A000380100200090D00308B510B9FCF7B6F81D
:1050B000FEE708BD30B50A4D0FCD89B06C460FC470
:1050C00095E80F0084E80F00002269460548FEF7C6
:1050D000B5F9B0FA80F04009FFF7E6FF09B030BD3E
:1050E000D88900003C01002037B50C4D01910446E1
:1050F0002846FEF717FB80F00100C0B2FFF7D4FF8F
:10510000019A21462846FEF7C7FAB0FA80F0400916
:1051100003B0BDE83040FFF7C7BF00BF3C0100202F
:1051200038B504460A480D46FEF788FB0848FEF7E6
:105130007DFB0028FAD02A4621460548FEF7FEFAF4
:10514000B0FA80F0BDE838404009FFF7ADBF00BFBE
:105150003C010020F8B50B4C0646002520460121F5
:10516000FFF7DEFF2378B34204F1010407D00135D5
:105170003F2DCCBF00200120FFF796FFEEE701484E
:10518000F8BD00BFB80B002070B590B000F056FA23
:10519000B0FA80F04009FFF787FF00F057FA00F0FF
:1051A0005FFA1E4800F072FA40F6621000F07CFAD6
:1051B000002000F089FA032000F0A2FA184B04AA9C
:1051C00003F10806154618685968144603C40833E5
:1051D000B3422246F7D118681B7923712060284614
:1051E000104C00F09FFA10480022672100F04CFBA1
:1051F00094E8070001AB83E807000C34184600F080
:1052000071FB0FCC08AD0FC594E80F0085E80F00C7
:1052100008A800F0ABFB10B070BD00BFFC0D002073
:10522000F8890000088A0000EFCDAB8910B504466C
:1052300000F004FAB0FA80F04009FFF735FF00F003
:10524000D1F980F00100C0B2FFF72EFF00F09AF90B
:1052500080F00100C0B2FFF727FF00F09FF980F057
:105260000100C0B2FFF720FF00F0A4F980F00100B8
:10527000C0B2FFF719FF00F0CDF980F00100C0B215
:10528000FFF712FF00F0A2F980F00100C0B2FFF7B3
:105290000BFF364B1C7000F05DF900F0CFF9A0F168
:1052A000090250425041FFF7FFFE00F09BF9002831
:1052B000FBD000F0C3F9A0F10A0EDEF1000040EBD4
:1052C0000E00FFF7F1FE00F051F900F0B7F9A0F180
:1052D0000B0358425841FFF7E7FE00F053F900284E
:1052E000FBD000F0ABF9A0F10B0CDCF1000040EBBF
:1052F0000C00FFF7D9FE00F051F90028FBD000F0B8
:105300009DF9A0F10B0460426041FFF7CDFE00F073
:1053100051F90028FBD000F091F9A0F10B014842AF
:105320004841FFF7C1FE00F075F90028FBD000F0FE
:1053300085F9A0F10A0358425841FFF7B5FE00F085
:105340001BF900F07BF9A0F10C0250425041FFF72D
:10535000ABFE00F03BF90028FBD000F06FF9B0FA8B
:1053600080F0BDE810404009FFF79EBEFC0D002014
:1053700010B500F063F9B0FA80F04009FFF794FE31
:1053800000F03CF980F00100C0B2FFF78DFE00F0A4
:10539000F9F880F00100C0B2FFF786FE00F0FEF8D9
:1053A00080F00100C0B2FFF77FFE00F003F980F04B
:1053B0000100C0B2FFF778FE00F02CF980F0010088
:1053C000C0B2FFF771FE00F001F980F00100C0B239
:1053D000FFF76AFE00F0C4F800F030F9421E5042B8
:1053E0005041FFF761FE00F009F90028FBD000F002
:1053F00025F9A0F1020EDEF1000040EB0E00FFF7F0
:1054000053FE00F0B3F800F019F9C31E584258419A
:10541000FFF74AFE00F0B6F80028FBD000F00EF9C6
:10542000A0F1030CDCF1000040EB0C00FFF73CFEA8
:1054300000F0B4F80028FBD000F000F9C41E604270
:105440006041FFF731FE00F0B5F80028FBD000F016
:10545000F5F8C11E48424841FFF726FE00F0DAF891
:105460000028FBD000F0EAF8831E58425841FFF7AD
:105470001BFE00F081F800F0E1F8021F504250419D
:10548000FFF712FE00F0A2F80028FBD000F0D6F8DB
:10549000B0FA80F04009FFF707FE00F0EDF804468F
:1054A00038B1054B01225A7000F0C0F8034B83F865
:1054B0000002204610BD00BFFC0D0020F80B0020AC
:1054C00070B50546081E18BF01200C460D4EFFF7AB
:1054D000EBFD281E18BF0120FFF7E6FD70780038AD
:1054E00018BF0120FFF7E0FD73789C4228BF1C46DF
:1054F0001B1B224631462846737000F037FD2046BC
:1055000070BD00BFFC0D002070B50546081E18BF19
:1055100001200C460E4EFFF7C7FD281E18BF0120C4
:10552000FFF7C2FD96F80002003818BF0120FFF710
:10553000BBFD96F800329C4228BF1C461B1BA200F4
:105540003146284686F8003200F010FD204670BD36
:10555000F80B0020014B01221A6070470010004038
:10556000014B01225A60704700100040014B01229C
:105570009A60704700100040014B01221A61704789
:1055800000100040044BD3F8040118B10022C3F806
:1055900004210120704700BF00100040044BD3F8E5
:1055A000080118B10022C3F808210120704700BF8C
:1055B00000100040044BD3F80C0118B10022C3F8CE
:1055C0000C210120704700BF00100040044BD3F8AD
:1055D000100118B10022C3F810210120704700BF4C
:1055E00000100040044BD3F8540118B10022C3F856
:1055F00054210120704700BF00100040044BD3F835
:10560000580118B10022C3F858210120704700BF8B
:1056100000100040044BD3F86C0118B10022C3F80D
:105620006C210120704700BF00100040024BD3F8EE
:105630005809C0B2704700BF00100040024BD3F8B9
:105640005005C0B2704700BF00100040034B00225D
:10565000C3F8FC2F0122C3F8FC2F70470010004054
:10566000044B0022C3F804234FF0FF32C3F8082391
:10567000704700BF00100040034BD3F80004431EE6
:1056800058425841704700BF0010004010B5044612
:10569000003818BF0120FFF707FD024BC3F804458F
:1056A00010BD00BF0010004010B5A0F51664A0B2F8
:1056B00064288CBF00200120FFF7F6FC014BC3F8E3
:1056C000084510BD00100040C3B2082B10B50446B9
:1056D0000FD903F12802D2B2282A0CD813F0030FF5
:1056E0000CBF01200020FFF7DFFC044BC3F80C4582
:1056F00010BD0120F7E70020F5E700BF00100040D3
:10570000062810B5044609D9A0F10F0358425841A4
:10571000FFF7CAFC024BC3F8104510BD0120F7E7A4
:105720000010004010B5044600780F288CBF002000
:105730000120FFF7B9FC607801288CBF0020012010
:10574000FFF7B2FCA0780F288CBF00200120FFF7E4
:10575000ABFCE07801288CBF00200120FFF7A4FCFF
:10576000207903288CBF00200120FFF79DFC607981
:1057700003288CBF00200120FFF796FCA0790128A8
:105780008CBF00200120FFF78FFCE07903288CBF3D
:1057900000200120FFF788FCA07A023802288CBF85
:1057A00000200120FFF780FCE07A01288CBF002058
:1057B0000120FFF779FC207B01288CBF002001200D
:1057C000FFF772FC2F4B0021C3F81415D3F8140512
:1057D00022780243C3F81425D3F81425607842EAEE
:1057E0000022C3F81425D3F81425A07842EA004219
:1057F000C3F81425D3F81425E07842EA0052C3F820
:105800001425D3F81425207942EA8052C3F81425D0
:10581000D3F81425607942EA0062C3F81425D3F85E
:105820001425A07942EA8062C3F81425D3F8142520
:10583000E07942EA4072C3F81425C3F81815D3F88A
:105840001815227A0A43C3F81825617AD3F8182567
:1058500042EA0122C3F81825D3F81825A17A42EAB2
:105860000142C3F81825D3F81825E17A42EA01620B
:10587000C3F81825D3F81825217B42EA4162C3F802
:10588000182510BD00100040072A70B506468CBFD1
:105890000020012014460D46FFF706FC104B0022A5
:1058A000C3F81C25C3F82025C3F82425C3F82825F0
:1058B00064B9C3F81C65A540C3F824550122C3F898
:1058C0002C4502FA04F4C3F8304570BD032CC3F82C
:1058D0002065F0D9211F8D40C3F82855EEE700BFA1
:1058E0000010004038B50446007803288CBF002023
:1058F0000120FFF7D9FB607802288CBF002001202F
:10590000FFF7D2FB60686FF07F45A8428CBF002094
:105910000120FFF7C9FBA068A8428CBF002001202E
:10592000FFF7C2FB104B0022C3F83425D3F834052F
:1059300021780143C3F83415D3F83415607841EA6F
:105940000021C3F83415C3F83825D3F8381560683A
:105950000143C3F83815C3F83C25D3F83C25A168AA
:105960000A43C3F83C2538BD0010004010B504467A
:105970000120FFF799FB607801288CBF00200120EF
:10598000FFF792FBA07801288CBF00200120FFF7D1
:105990008BFBE07801288CBF00200120FFF784FBFF
:1059A000207902288CBF00200120FFF77DFB607961
:1059B000013805288CBF00200120FFF775FBA07976
:1059C000013805288CBF00200120FFF76DFB607AAD
:1059D0003F288CBF00200120FFF766FBA07A01283A
:1059E0008CBF00200120FFF75FFBE07A013802281E
:1059F0008CBF00200120FFF757FB207B01380528D2
:105A00008CBF00200120FFF74FFB607B01288CBF7B
:105A100000200120FFF748FBA07B013805288CBF40
:105A200000200120FFF740FBE07B0F288CBF002007
:105A30000120FFF739FB207C0F288CBF00200120BC
:105A4000FFF732FB608AB0F5005F2CBF0020012019
:105A5000FFF72AFBA08AB0F5805F2CBF0020012051
:105A6000FFF722FBA069003818BF0120FFF71CFBDD
:105A7000A08BB0F5804F2CBF00200120FFF714FB56
:105A8000484B0022C3F80029D3F8000921780143CC
:105A9000C3F80019C3F80429D3F804096178014355
:105AA000C3F80419D3F80419A07841EAC001C3F877
:105AB0000419D3F80419E07841EA0011C3F8041975
:105AC000D3F80419207941EA8011C3F80419D3F8F6
:105AD0000419607941EA8021C3F80419D3F8041944
